{
  "_format": "hh-sol-artifact-1",
  "contractName": "Raffle",
  "sourceName": "contracts/Raffle.sol",
  "abi": [
    {
      "inputs": [
        {
          "internalType": "address",
          "name": "vrfCoordinatorV2",
          "type": "address"
        },
        {
          "internalType": "uint256",
          "name": "entranceFee",
          "type": "uint256"
        },
        {
          "internalType": "bytes32",
          "name": "gasLane",
          "type": "bytes32"
        },
        {
          "internalType": "uint64",
          "name": "subscriptionId",
          "type": "uint64"
        },
        {
          "internalType": "uint32",
          "name": "callbackGasLimit",
          "type": "uint32"
        },
        {
          "internalType": "uint256",
          "name": "interval",
          "type": "uint256"
        }
      ],
      "stateMutability": "nonpayable",
      "type": "constructor"
    },
    {
      "inputs": [
        {
          "internalType": "address",
          "name": "have",
          "type": "address"
        },
        {
          "internalType": "address",
          "name": "want",
          "type": "address"
        }
      ],
      "name": "OnlyCoordinatorCanFulfill",
      "type": "error"
    },
    {
      "inputs": [
        {
          "internalType": "uint256",
          "name": "currentBalance",
          "type": "uint256"
        },
        {
          "internalType": "uint256",
          "name": "numPlayers",
          "type": "uint256"
        },
        {
          "internalType": "uint256",
          "name": "raffleState",
          "type": "uint256"
        }
      ],
      "name": "RAFFLE__UpKeepNotNeeded",
      "type": "error"
    },
    {
      "inputs": [],
      "name": "Raffle__NotEnoughETHEntered",
      "type": "error"
    },
    {
      "inputs": [],
      "name": "Raffle__NotOpen",
      "type": "error"
    },
    {
      "inputs": [],
      "name": "Raffle__TransferFailled",
      "type": "error"
    },
    {
      "anonymous": false,
      "inputs": [
        {
          "indexed": true,
          "internalType": "address",
          "name": "player",
          "type": "address"
        }
      ],
      "name": "RaffleEnter",
      "type": "event"
    },
    {
      "anonymous": false,
      "inputs": [
        {
          "indexed": true,
          "internalType": "uint256",
          "name": "requiestId",
          "type": "uint256"
        }
      ],
      "name": "RequestRaffleWinner",
      "type": "event"
    },
    {
      "anonymous": false,
      "inputs": [
        {
          "indexed": false,
          "internalType": "address",
          "name": "recentWinner",
          "type": "address"
        }
      ],
      "name": "WinnerPicked",
      "type": "event"
    },
    {
      "inputs": [
        {
          "internalType": "bytes",
          "name": "",
          "type": "bytes"
        }
      ],
      "name": "checkUpkeep",
      "outputs": [
        {
          "internalType": "bool",
          "name": "upkeepNeeded",
          "type": "bool"
        },
        {
          "internalType": "bytes",
          "name": "",
          "type": "bytes"
        }
      ],
      "stateMutability": "view",
      "type": "function"
    },
    {
      "inputs": [],
      "name": "enterRaffle",
      "outputs": [],
      "stateMutability": "payable",
      "type": "function"
    },
    {
      "inputs": [],
      "name": "getEntranceFee",
      "outputs": [
        {
          "internalType": "uint256",
          "name": "",
          "type": "uint256"
        }
      ],
      "stateMutability": "view",
      "type": "function"
    },
    {
      "inputs": [],
      "name": "getInterval",
      "outputs": [
        {
          "internalType": "uint256",
          "name": "",
          "type": "uint256"
        }
      ],
      "stateMutability": "view",
      "type": "function"
    },
    {
      "inputs": [
        {
          "internalType": "uint256",
          "name": "ind",
          "type": "uint256"
        }
      ],
      "name": "getPlayer",
      "outputs": [
        {
          "internalType": "address",
          "name": "",
          "type": "address"
        }
      ],
      "stateMutability": "view",
      "type": "function"
    },
    {
      "inputs": [],
      "name": "getPlayersNum",
      "outputs": [
        {
          "internalType": "uint256",
          "name": "",
          "type": "uint256"
        }
      ],
      "stateMutability": "view",
      "type": "function"
    },
    {
      "inputs": [],
      "name": "getRaffleState",
      "outputs": [
        {
          "internalType": "enum Raffle.RaffleState",
          "name": "",
          "type": "uint8"
        }
      ],
      "stateMutability": "view",
      "type": "function"
    },
    {
      "inputs": [],
      "name": "getRecentWinner",
      "outputs": [
        {
          "internalType": "address",
          "name": "",
          "type": "address"
        }
      ],
      "stateMutability": "view",
      "type": "function"
    },
    {
      "inputs": [
        {
          "internalType": "bytes",
          "name": "",
          "type": "bytes"
        }
      ],
      "name": "performUpkeep",
      "outputs": [],
      "stateMutability": "nonpayable",
      "type": "function"
    },
    {
      "inputs": [
        {
          "internalType": "uint256",
          "name": "requestId",
          "type": "uint256"
        },
        {
          "internalType": "uint256[]",
          "name": "randomWords",
          "type": "uint256[]"
        }
      ],
      "name": "rawFulfillRandomWords",
      "outputs": [],
      "stateMutability": "nonpayable",
      "type": "function"
    }
  ],
  "bytecode": "0x6101606040523480156200001257600080fd5b50604051620017d3380380620017d3833981810160405281019062000038919062000294565b858073ffffffffffffffffffffffffffffffffffffffff1660808173ffffffffffffffffffffffffffffffffffffffff1681525050508460a081815250508573ffffffffffffffffffffffffffffffffffffffff1660c08173ffffffffffffffffffffffffffffffffffffffff16815250508360e081815250508267ffffffffffffffff166101008167ffffffffffffffff16815250508163ffffffff166101208163ffffffff16815250506000600160146101000a81548160ff021916908360018111156200010d576200010c62000330565b5b0217905550426002819055508061014081815250505050505050506200035f565b600080fd5b600073ffffffffffffffffffffffffffffffffffffffff82169050919050565b6000620001608262000133565b9050919050565b620001728162000153565b81146200017e57600080fd5b50565b600081519050620001928162000167565b92915050565b6000819050919050565b620001ad8162000198565b8114620001b957600080fd5b50565b600081519050620001cd81620001a2565b92915050565b6000819050919050565b620001e881620001d3565b8114620001f457600080fd5b50565b6000815190506200020881620001dd565b92915050565b600067ffffffffffffffff82169050919050565b6200022d816200020e565b81146200023957600080fd5b50565b6000815190506200024d8162000222565b92915050565b600063ffffffff82169050919050565b6200026e8162000253565b81146200027a57600080fd5b50565b6000815190506200028e8162000263565b92915050565b60008060008060008060c08789031215620002b457620002b36200012e565b5b6000620002c489828a0162000181565b9650506020620002d789828a01620001bc565b9550506040620002ea89828a01620001f7565b9450506060620002fd89828a016200023c565b93505060806200031089828a016200027d565b92505060a06200032389828a01620001bc565b9150509295509295509295565b7f4e487b7100000000000000000000000000000000000000000000000000000000600052602160045260246000fd5b60805160a05160c05160e051610100516101205161014051611404620003cf6000396000818161071b01526107c4015260006105f5015260006105d2015260006105b101526000610575015260008181610248015261035101526000818161029101526102e501526114046000f3fe6080604052600436106100915760003560e01c80634585e33b116100595780634585e33b1461014a578063473f1ddc146101735780636e04ff0d1461019e57806391ad27b4146101dc578063e55ae4e81461020757610091565b806309bc33a7146100965780630a7fa049146100c1578063115cbaf5146100ec5780631fe543e3146101175780632cfcc53914610140575b600080fd5b3480156100a257600080fd5b506100ab610244565b6040516100b89190610b14565b60405180910390f35b3480156100cd57600080fd5b506100d661026c565b6040516100e39190610b14565b60405180910390f35b3480156100f857600080fd5b50610101610278565b60405161010e9190610ba6565b60405180910390f35b34801561012357600080fd5b5061013e60048036038101906101399190610d5a565b61028f565b005b61014861034f565b005b34801561015657600080fd5b50610171600480360381019061016c9190610e11565b6104be565b005b34801561017f57600080fd5b506101886106ae565b6040516101959190610e9f565b60405180910390f35b3480156101aa57600080fd5b506101c560048036038101906101c09190610f6f565b6106d8565b6040516101d3929190611052565b60405180910390f35b3480156101e857600080fd5b506101f16107c0565b6040516101fe9190610b14565b60405180910390f35b34801561021357600080fd5b5061022e60048036038101906102299190611082565b6107e8565b60405161023b9190610e9f565b60405180910390f35b60007f0000000000000000000000000000000000000000000000000000000000000000905090565b60008080549050905090565b6000600160149054906101000a900460ff16905090565b7f000000000000000000000000000000000000000000000000000000000000000073ffffffffffffffffffffffffffffffffffffffff163373ffffffffffffffffffffffffffffffffffffffff161461034157337f00000000000000000000000000000000000000000000000000000000000000006040517f1cf993f40000000000000000000000000000000000000000000000000000000081526004016103389291906110af565b60405180910390fd5b61034b828261082f565b5050565b7f00000000000000000000000000000000000000000000000000000000000000003410156103a9576040517fbd4e069500000000000000000000000000000000000000000000000000000000815260040160405180910390fd5b600060018111156103bd576103bc610b2f565b5b600160149054906101000a900460ff1660018111156103df576103de610b2f565b5b14610416576040517f1425571c00000000000000000000000000000000000000000000000000000000815260040160405180910390fd5b6000339080600181540180825580915050600190039060005260206000200160009091909190916101000a81548173ffffffffffffffffffffffffffffffffffffffff021916908373ffffffffffffffffffffffffffffffffffffffff1602179055503373ffffffffffffffffffffffffffffffffffffffff167f0805e1d667bddb8a95f0f09880cf94f403fb596ce79928d9f29b74203ba284d460405160405180910390a2565b60006104d8604051806020016040528060008152506106d8565b509050806105475747600080549050600160149054906101000a900460ff16600181111561050957610508610b2f565b5b6040517f2e69033c00000000000000000000000000000000000000000000000000000000815260040161053e939291906110d8565b60405180910390fd5b60018060146101000a81548160ff0219169083600181111561056c5761056b610b2f565b5b021790555060007f000000000000000000000000000000000000000000000000000000000000000073ffffffffffffffffffffffffffffffffffffffff16635d3b1d307f00000000000000000000000000000000000000000000000000000000000000007f000000000000000000000000000000000000000000000000000000000000000060037f000000000000000000000000000000000000000000000000000000000000000060016040518663ffffffff1660e01b8152600401610636959493929190611187565b6020604051808303816000875af1158015610655573d6000803e3d6000fd5b505050506040513d601f19601f8201168201806040525081019061067991906111ef565b9050807fde6349b018d6c03d837b67d9a198a6ba4842546f2295fe963fae141e5dbaef8160405160405180910390a250505050565b6000600160009054906101000a900473ffffffffffffffffffffffffffffffffffffffff16905090565b600060606000600160149054906101000a900460ff166001811115610700576106ff610b2f565b5b6000600181111561071457610713610b2f565b5b14905060007f000000000000000000000000000000000000000000000000000000000000000060025442610748919061124b565b119050600080600080549050119050600080471190508380156107685750825b80156107715750815b801561077a5750805b9550856040518060400160405280600481526020017f30783030000000000000000000000000000000000000000000000000000000008152509550955050505050915091565b60007f0000000000000000000000000000000000000000000000000000000000000000905090565b60008082815481106107fd576107fc61127f565b5b9060005260206000200160009054906101000a900473ffffffffffffffffffffffffffffffffffffffff169050919050565b600080805490508260008151811061084a5761084961127f565b5b602002602001015161085c91906112dd565b905060008082815481106108735761087261127f565b5b9060005260206000200160009054906101000a900473ffffffffffffffffffffffffffffffffffffffff16905080600160006101000a81548173ffffffffffffffffffffffffffffffffffffffff021916908373ffffffffffffffffffffffffffffffffffffffff1602179055506000600160146101000a81548160ff0219169083600181111561090757610906610b2f565b5b0217905550600067ffffffffffffffff81111561092757610926610c17565b5b6040519080825280602002602001820160405280156109555781602001602082028036833780820191505090505b506000908051906020019061096b929190610a54565b504260028190555060008173ffffffffffffffffffffffffffffffffffffffff16476040516109999061133f565b60006040518083038185875af1925050503d80600081146109d6576040519150601f19603f3d011682016040523d82523d6000602084013e6109db565b606091505b5050905080610a16576040517fccee795400000000000000000000000000000000000000000000000000000000815260040160405180910390fd5b7f5b690ec4a06fe979403046eaeea5b3ce38524683c3001f662c8b5a829632f7df82604051610a4591906113b3565b60405180910390a15050505050565b828054828255906000526020600020908101928215610acd579160200282015b82811115610acc5782518260006101000a81548173ffffffffffffffffffffffffffffffffffffffff021916908373ffffffffffffffffffffffffffffffffffffffff16021790555091602001919060010190610a74565b5b509050610ada9190610ade565b5090565b5b80821115610af7576000816000905550600101610adf565b5090565b6000819050919050565b610b0e81610afb565b82525050565b6000602082019050610b296000830184610b05565b92915050565b7f4e487b7100000000000000000000000000000000000000000000000000000000600052602160045260246000fd5b60028110610b6f57610b6e610b2f565b5b50565b6000819050610b8082610b5e565b919050565b6000610b9082610b72565b9050919050565b610ba081610b85565b82525050565b6000602082019050610bbb6000830184610b97565b92915050565b6000604051905090565b600080fd5b600080fd5b610bde81610afb565b8114610be957600080fd5b50565b600081359050610bfb81610bd5565b92915050565b600080fd5b6000601f19601f8301169050919050565b7f4e487b7100000000000000000000000000000000000000000000000000000000600052604160045260246000fd5b610c4f82610c06565b810181811067ffffffffffffffff82111715610c6e57610c6d610c17565b5b80604052505050565b6000610c81610bc1565b9050610c8d8282610c46565b919050565b600067ffffffffffffffff821115610cad57610cac610c17565b5b602082029050602081019050919050565b600080fd5b6000610cd6610cd184610c92565b610c77565b90508083825260208201905060208402830185811115610cf957610cf8610cbe565b5b835b81811015610d225780610d0e8882610bec565b845260208401935050602081019050610cfb565b5050509392505050565b600082601f830112610d4157610d40610c01565b5b8135610d51848260208601610cc3565b91505092915050565b60008060408385031215610d7157610d70610bcb565b5b6000610d7f85828601610bec565b925050602083013567ffffffffffffffff811115610da057610d9f610bd0565b5b610dac85828601610d2c565b9150509250929050565b600080fd5b60008083601f840112610dd157610dd0610c01565b5b8235905067ffffffffffffffff811115610dee57610ded610db6565b5b602083019150836001820283011115610e0a57610e09610cbe565b5b9250929050565b60008060208385031215610e2857610e27610bcb565b5b600083013567ffffffffffffffff811115610e4657610e45610bd0565b5b610e5285828601610dbb565b92509250509250929050565b600073ffffffffffffffffffffffffffffffffffffffff82169050919050565b6000610e8982610e5e565b9050919050565b610e9981610e7e565b82525050565b6000602082019050610eb46000830184610e90565b92915050565b600080fd5b600067ffffffffffffffff821115610eda57610ed9610c17565b5b610ee382610c06565b9050602081019050919050565b82818337600083830152505050565b6000610f12610f0d84610ebf565b610c77565b905082815260208101848484011115610f2e57610f2d610eba565b5b610f39848285610ef0565b509392505050565b600082601f830112610f5657610f55610c01565b5b8135610f66848260208601610eff565b91505092915050565b600060208284031215610f8557610f84610bcb565b5b600082013567ffffffffffffffff811115610fa357610fa2610bd0565b5b610faf84828501610f41565b91505092915050565b60008115159050919050565b610fcd81610fb8565b82525050565b600081519050919050565b600082825260208201905092915050565b60005b8381101561100d578082015181840152602081019050610ff2565b60008484015250505050565b600061102482610fd3565b61102e8185610fde565b935061103e818560208601610fef565b61104781610c06565b840191505092915050565b60006040820190506110676000830185610fc4565b81810360208301526110798184611019565b90509392505050565b60006020828403121561109857611097610bcb565b5b60006110a684828501610bec565b91505092915050565b60006040820190506110c46000830185610e90565b6110d16020830184610e90565b9392505050565b60006060820190506110ed6000830186610b05565b6110fa6020830185610b05565b6111076040830184610b05565b949350505050565b6000819050919050565b6111228161110f565b82525050565b600067ffffffffffffffff82169050919050565b61114581611128565b82525050565b600061ffff82169050919050565b6111628161114b565b82525050565b600063ffffffff82169050919050565b61118181611168565b82525050565b600060a08201905061119c6000830188611119565b6111a9602083018761113c565b6111b66040830186611159565b6111c36060830185611178565b6111d06080830184611178565b9695505050505050565b6000815190506111e981610bd5565b92915050565b60006020828403121561120557611204610bcb565b5b6000611213848285016111da565b91505092915050565b7f4e487b7100000000000000000000000000000000000000000000000000000000600052601160045260246000fd5b600061125682610afb565b915061126183610afb565b92508282039050818111156112795761127861121c565b5b92915050565b7f4e487b7100000000000000000000000000000000000000000000000000000000600052603260045260246000fd5b7f4e487b7100000000000000000000000000000000000000000000000000000000600052601260045260246000fd5b60006112e882610afb565b91506112f383610afb565b925082611303576113026112ae565b5b828206905092915050565b600081905092915050565b50565b600061132960008361130e565b915061133482611319565b600082019050919050565b600061134a8261131c565b9150819050919050565b6000819050919050565b600061137961137461136f84610e5e565b611354565b610e5e565b9050919050565b600061138b8261135e565b9050919050565b600061139d82611380565b9050919050565b6113ad81611392565b82525050565b60006020820190506113c860008301846113a4565b9291505056fea264697066735822122046351fe1aba03397054c3c7b4b8600a16ef31fceeaeb98e1bf71217778bb27bf64736f6c63430008110033",
  "linkReferences": {},
  "deployedLinkReferences": {}
}